:100000000C9434000C943E000C943E000C943E0082
:100010000C943E000C943E000C943E000C943E0068
:100020000C943E000C943E000C943E000C943E0058
:100030000C943E000C943E000C943E000C943E0048
:100040000C943E000C943E000C943E000C943E0038
:100050000C943E000C943E000C943E000C943E0028
:100060000C943E000C943E0011241FBECFEFD8E04C
:10007000DEBFCDBF0E9440000C946B000C940000CA
:10008000259A80E285B92FEF33ED90E3215030407F
:100090009040E1F700C0000085B92FEF33ED90E309
:1000A000215030409040E1F700C0000085B92FEFAB
:1000B00033ED90E3215030409040E1F700C0000064
:1000C00085B92FEF33ED90E3215030409040E1F7B8
:0A00D00000C00000D7CFF894FFCF66
:00000001FF
